:0607A600FFFFFFFFFFFF53
:1006ED007580FF7590FF75B0FFD2947F0A7E001262
:1006FD00072612067212079F120774C2947F0A7E94
:10070D0000120726D2947F0A7E00120726C2947F1C
:09071D000A7E00120726D2942284
:100541001206ED7B007A0079737F52120479EF7005
:1005510051FB7A00797512028BEF7046FB7A0079B4
:1005610075120306EF703B750801E50825E025E0EB
:100571002403FD751E00751F007520757BFF7A072A
:1005810079A67F601203FCEF7018E50825E025E0ED
:10059100FF7B007A0079091204DAEF7005C2941228
:0605A1000746D294809D84
:080471007B007A0079197F522B
:100479008F1B8B1C8A1D891E1207627D077F0D1237
:1004890006377D037F14120786851B21753A01758E
:100499003B00753C00753D21753E00753F00754078
:1004A9001F7A007921120019EF7023E520641045A5
:1004B9001F701BAB1CAA1DA91EE5211201BCAB1C98
:1004C900AA1DA91E900001E5221201CE80027FFE1D
:0104D9002200
:10028B008B198A1A891BE4F51D120762E4FD7F0D99
:10029B001206377D807F0E1207667520937521201D
:1002AB00753A02753B00753C00753D20753E007537
:1002BB003F0075401E7B007A0079207F0C12001DD9
:1002CB008F1CE51C702BFF74202FF8E6AB19AA1AB4
:1002DB00A91B8F827583001201CE74202FF8E66262
:1002EB001D0FBF04E274202FF8E6651D6003751C1B
:0B02FB00FE7D807F0E120786AF1C22E4
:100306008B198A1A891B751E93751F70E4F524FFD5
:10031600AB19AA1AA91B8F8275830012018FFE746E
:10032600202FF8A6068F8275830012018F62240F94
:10033600BF04DD7534007535007536257B007A00FF
:10034600791E7D07120215120762753A09753B0080
:10035600753C00753D1E753E00753F0075401C7B63
:10036600007A00791E7F0C12001DEF700BE51D64EC
:0B03760018451C7003FF80027FFE2270
:1003FC008B1B8A1C891D8F248D25E4FFAB1BAA1C2B
:10040C00A91D8F8275830012018FFE74262FF8A60A
:10041C00060FBF06E7E4FFAB1EAA1FA9208F82754B
:10042C00830012018FFE742C2FF8A6060FBF06E76F
:10043C00753A0C753B00753C00753D24753E007596
:10044C003F007540227B007A0079247F0E12001D3C
:10045C008F21E52170097F081205F8EF20E3037561
:05046C0021FEAF21227A
:1004DA008B198A1A891B751E308F1F753400753562
:1004EA00007536207B007A00791E7D02120215758E
:1004FA003A04753B00753C00753D1E753E00753F1C
:10050A000075401C7B007A00791E7F0C12001DEFDB
:10051A007022E51D6490451C701AFE741E2EF8E6C2
:10052A00AB19AA1AA91B8E827583001201CE0EBEC0
:07053A0010E980027FFE22A0
:100381008B478A488949754CA08F4D753400753566
:100391000075364E7D0212020F753A04120003EF0A
:1003A1007010E54B6404454A7008E54C540F640A2B
:1003B10060027FFEEF7043FEAB47AA48A9498E82D7
:1003C10075830012018FFD744C2EF8A6050EBE1028
:1003D100E775340075350075365C7D1012020F75B6
:1003E1003A12120003EF7010E54B6404454A70089D
:0B03F100E54C540F640A60027FFE22FE
:1006B000756150E4F562F534753500753663FB7A83
:1006C0000079617D02120215753A04753B00753C94
:1006D00000753D61753E00753F0075405F7B007A97
:0D06E0000079617F0C12001D8F5E7F0022EB
:06020F007B007A00794C2F
:100215008B308A3189328D337D047F051207661252
:1002250006337D807F0A120786E4F537E537C395E7
:10023500335019AB30AA31A9328537827583001244
:10024500018FFD7F09120637053780E07D037F01A9
:100255001206377537FF7F051205F81537E5376044
:1002650004EF30E2F17F221205F8AB34AA35A93646
:10027500EF1201BC7F211205F8AB34AA35A93690DF
:060285000001EF0201CEB2
:10067200D29600C29600D296007D0F7F01120637F5
:10068200007D3D7F111206377D1E7F2D120637E455
:10069200FD7F2C1206377D8D7F2A1206377D3E7F25
:0E06A2002B1206377D407F151206377F00228F
:1005A700EF644170401207627D3D7F111206377D6F
:1005B700867F171206377D7F7F261206377D1E7FBF
:1005C7002D120637E4FD7F2C1206377D8D7F2A1208
:1005D70006377D3E7F2B1206377F017E00120726E6
:0B05E70012077480037FFF227F0022B8
:0605F200AC07AB05E4FEBE
:1005F800E4FEC2A4EF25E0547E4480FF7D08C2A536
:10060800EF30E704D2A38002C2A3D2A5EF25E0FF12
:10061800DDEC7D08C2A5EE25E0FED2A530A203439D
:0B0628000601DDF0D2A4D2A5AF06222F
:04063300E4FD7F0162
:10063700C2A5C2A4EF25E0547EFF7E08EF30E70491
:10064700D2A38002C2A3D2A5EF25E0FFC2A5DEECAC
:100657007E08ED30E704D2A38002C2A3D2A5ED2520
:0B066700E0FDC2A5DEECD2A4D2A5226B
:0D0786001205F2AE07AF04EB4EFD02063780
:040762007D087F0887
:0E0766001205F2AE07AF04EBF45EFD0206379B
:10000300753B00753C00753D4C753E00753F0075B2
:0A001300404A7A00794C7B007F0C14
:10001D008F368B378A3889397541FEE4F542F543C1
:10002D00E53624F4600C24FE700E754212754310F3
:10003D008006754277754330E5424480FD7F02129C
:10004D0006377D807F041207661206337D807F0A96
:10005D00120786E4F545F546C3E546953AE5459420
:10006D0000501FAB37AA38A93985468285458312C2
:10007D00018FFD7F091206370546E54670DA054505
:10008D0080D6AD367F01120637E536B40C077D807C
:10009D007F0D1207867545077546D07F041205F84A
:1000AD008F44E546154670021545E5464545600900
:1000BD00E54420E004554360E27D807F0D12076624
:1000CD00E546454570030201827F061205F8EF549F
:1000DD001B600302017FF541E544554230E0037595
:1000ED0041FFE536640C60030201827F0A1205F8B8
:1000FD008F447F0C1205F8EF5407FD6021E5442471
:10010D00FFFFE434FFFEEF7803C333CE33CED8F9CF
:10011D007C002DFFEC3EAB3EAA3FA940800FE5448D
:10012D0075F008A4FFAB3EAA3FA940E5F08FF01291
:10013D0001F0E5447003754401E544D39412400386
:10014D00754412E4F545F546C3E5469544E54594F9
:10015D000050227F091205F8AB3BAA3CA93D85460C
:10016D0082854583EF1201CE0546E54670DA0545D9
:10017D0080D67541FE7D807F0C120786120633AF47
:02018D0041220D
:100774007F141205F8EF540370077D037F141207EA
:020784008622CB
:07079F007D037F14020766D1
:10074600120471EF600C120471EF6006120471EF6F
:0C07560070097F017E0012072680E5225A
:10072600E4FDFCC3ED9FEC9E5015E4FBFA0BBB0009
:10073600010ABA27F8BB10F50DBD00010C80E422B2
:0300000002079361
:0C079300787FE4F6D8FD758178020541FE
:10018F00BB010CE58229F582E5833AF583E0225025
:10019F0006E92582F8E622BBFE06E92582F8E2226F
:0D01AF00E58229F582E5833AF583E4932289
:1001BC00BB010689828A83F0225002F722BBFE0122
:0201CC00F3221C
:1001CE00F8BB010DE58229F582E5833AF583E8F067
:1001DE00225006E92582C8F622BBFE05E92582C813
:0201EE00F222FB
:1001F000BB010A89828A83F0E5F0A3F0225006F75A
:0F02000009A7F01922BBFE06F3E5F009F3192256
:00000001FF
